:020000040000FA
:10000000012807309F0083160F30850000308600DE
:10001000831285018601A001A101A201051C1728F8
:100020004B20051C1728A00A051814284B20851CF6
:100030000E284B20851C0E28A00803192128061421
:100040008614851821284B20A008031D28280E2877
:100050002008210203190610200822020319861025
:10006000051D3D284B20051D3D28200821020319B0
:100070003A28A10A05193A284B20851D28284B202B
:10008000851D28282008220203194728A20A85195D
:1000900047284B2028281E30A3006430A400A40B5E
:0800A0004F28A30B4D280800B6
:0400A80000340034EC
:02400E00703F01
:00000001FF
